{
  "_format": "hh-sol-artifact-1",
  "contractName": "FractionalOwnership",
  "sourceName": "contracts/FractionalOwnership.sol",
  "abi": [
    {
      "inputs": [],
      "stateMutability": "nonpayable",
      "type": "constructor"
    },
    {
      "anonymous": false,
      "inputs": [
        {
          "indexed": true,
          "internalType": "uint256",
          "name": "propertyId",
          "type": "uint256"
        },
        {
          "indexed": true,
          "internalType": "address",
          "name": "investor",
          "type": "address"
        },
        {
          "indexed": false,
          "internalType": "uint256",
          "name": "amount",
          "type": "uint256"
        },
        {
          "indexed": false,
          "internalType": "uint256",
          "name": "ownershipPercentage",
          "type": "uint256"
        },
        {
          "indexed": false,
          "internalType": "uint256",
          "name": "timestamp",
          "type": "uint256"
        }
      ],
      "name": "InvestmentRecorded",
      "type": "event"
    },
    {
      "anonymous": false,
      "inputs": [
        {
          "indexed": true,
          "internalType": "uint256",
          "name": "propertyId",
          "type": "uint256"
        },
        {
          "indexed": true,
          "internalType": "address",
          "name": "oldInvestor",
          "type": "address"
        },
        {
          "indexed": true,
          "internalType": "address",
          "name": "newInvestor",
          "type": "address"
        },
        {
          "indexed": false,
          "internalType": "uint256",
          "name": "amount",
          "type": "uint256"
        },
        {
          "indexed": false,
          "internalType": "uint256",
          "name": "timestamp",
          "type": "uint256"
        }
      ],
      "name": "InvestmentUpdated",
      "type": "event"
    },
    {
      "anonymous": false,
      "inputs": [
        {
          "indexed": true,
          "internalType": "uint256",
          "name": "propertyId",
          "type": "uint256"
        },
        {
          "indexed": true,
          "internalType": "address",
          "name": "oldInvestor",
          "type": "address"
        },
        {
          "indexed": true,
          "internalType": "address",
          "name": "newInvestor",
          "type": "address"
        },
        {
          "indexed": false,
          "internalType": "uint256",
          "name": "amount",
          "type": "uint256"
        },
        {
          "indexed": false,
          "internalType": "uint256",
          "name": "timestamp",
          "type": "uint256"
        }
      ],
      "name": "OwnershipTransferred",
      "type": "event"
    },
    {
      "inputs": [
        {
          "internalType": "address",
          "name": "_admin",
          "type": "address"
        }
      ],
      "name": "addAdmin",
      "outputs": [],
      "stateMutability": "nonpayable",
      "type": "function"
    },
    {
      "inputs": [],
      "name": "admin",
      "outputs": [
        {
          "internalType": "address",
          "name": "",
          "type": "address"
        }
      ],
      "stateMutability": "view",
      "type": "function"
    },
    {
      "inputs": [
        {
          "internalType": "uint256",
          "name": "_propertyId",
          "type": "uint256"
        }
      ],
      "name": "fetchInvestments",
      "outputs": [
        {
          "components": [
            {
              "internalType": "address",
              "name": "investor",
              "type": "address"
            },
            {
              "internalType": "uint256",
              "name": "propertyId",
              "type": "uint256"
            },
            {
              "internalType": "uint256",
              "name": "amount",
              "type": "uint256"
            },
            {
              "internalType": "uint256",
              "name": "ownershipPercentage",
              "type": "uint256"
            },
            {
              "internalType": "uint256",
              "name": "timestamp",
              "type": "uint256"
            },
            {
              "internalType": "bool",
              "name": "isListed",
              "type": "bool"
            },
            {
              "internalType": "uint256",
              "name": "askingPrice",
              "type": "uint256"
            }
          ],
          "internalType": "struct FractionalOwnership.Investment[]",
          "name": "",
          "type": "tuple[]"
        }
      ],
      "stateMutability": "view",
      "type": "function"
    },
    {
      "inputs": [
        {
          "internalType": "uint256",
          "name": "_propertyId",
          "type": "uint256"
        },
        {
          "internalType": "address",
          "name": "_investor",
          "type": "address"
        }
      ],
      "name": "getInvestorIndex",
      "outputs": [
        {
          "internalType": "uint256",
          "name": "",
          "type": "uint256"
        }
      ],
      "stateMutability": "view",
      "type": "function"
    },
    {
      "inputs": [
        {
          "internalType": "uint256",
          "name": "",
          "type": "uint256"
        },
        {
          "internalType": "uint256",
          "name": "",
          "type": "uint256"
        }
      ],
      "name": "investments",
      "outputs": [
        {
          "internalType": "address",
          "name": "investor",
          "type": "address"
        },
        {
          "internalType": "uint256",
          "name": "propertyId",
          "type": "uint256"
        },
        {
          "internalType": "uint256",
          "name": "amount",
          "type": "uint256"
        },
        {
          "internalType": "uint256",
          "name": "ownershipPercentage",
          "type": "uint256"
        },
        {
          "internalType": "uint256",
          "name": "timestamp",
          "type": "uint256"
        },
        {
          "internalType": "bool",
          "name": "isListed",
          "type": "bool"
        },
        {
          "internalType": "uint256",
          "name": "askingPrice",
          "type": "uint256"
        }
      ],
      "stateMutability": "view",
      "type": "function"
    },
    {
      "inputs": [
        {
          "internalType": "uint256",
          "name": "",
          "type": "uint256"
        },
        {
          "internalType": "address",
          "name": "",
          "type": "address"
        }
      ],
      "name": "investorIndex",
      "outputs": [
        {
          "internalType": "uint256",
          "name": "",
          "type": "uint256"
        }
      ],
      "stateMutability": "view",
      "type": "function"
    },
    {
      "inputs": [
        {
          "internalType": "address",
          "name": "",
          "type": "address"
        }
      ],
      "name": "isAdmin",
      "outputs": [
        {
          "internalType": "bool",
          "name": "",
          "type": "bool"
        }
      ],
      "stateMutability": "view",
      "type": "function"
    },
    {
      "inputs": [
        {
          "internalType": "uint256",
          "name": "_propertyId",
          "type": "uint256"
        },
        {
          "internalType": "uint256",
          "name": "_askingPrice",
          "type": "uint256"
        }
      ],
      "name": "listInvestmentForSale",
      "outputs": [],
      "stateMutability": "nonpayable",
      "type": "function"
    },
    {
      "inputs": [
        {
          "internalType": "uint256",
          "name": "_propertyId",
          "type": "uint256"
        },
        {
          "internalType": "address",
          "name": "_investor",
          "type": "address"
        },
        {
          "internalType": "uint256",
          "name": "_amount",
          "type": "uint256"
        },
        {
          "internalType": "uint256",
          "name": "_ownershipPercentage",
          "type": "uint256"
        }
      ],
      "name": "recordInvestment",
      "outputs": [],
      "stateMutability": "nonpayable",
      "type": "function"
    },
    {
      "inputs": [
        {
          "internalType": "address",
          "name": "_admin",
          "type": "address"
        }
      ],
      "name": "removeAdmin",
      "outputs": [],
      "stateMutability": "nonpayable",
      "type": "function"
    },
    {
      "inputs": [
        {
          "internalType": "uint256",
          "name": "_propertyId",
          "type": "uint256"
        },
        {
          "internalType": "address",
          "name": "_seller",
          "type": "address"
        },
        {
          "internalType": "address",
          "name": "_buyer",
          "type": "address"
        },
        {
          "internalType": "uint256",
          "name": "_amount",
          "type": "uint256"
        }
      ],
      "name": "transferOwnership",
      "outputs": [],
      "stateMutability": "nonpayable",
      "type": "function"
    },
    {
      "inputs": [
        {
          "internalType": "uint256",
          "name": "_propertyId",
          "type": "uint256"
        },
        {
          "internalType": "address",
          "name": "_oldInvestor",
          "type": "address"
        },
        {
          "internalType": "address",
          "name": "_newInvestor",
          "type": "address"
        }
      ],
      "name": "updateInvestmentOwnership",
      "outputs": [],
      "stateMutability": "nonpayable",
      "type": "function"
    }
  ],
  "bytecode": "0x6080604052348015600f57600080fd5b50336000806101000a81548173ffffffffffffffffffffffffffffffffffffffff021916908373ffffffffffffffffffffffffffffffffffffffff16021790555060018060008060009054906101000a900473ffffffffffffffffffffffffffffffffffffffff1673ffffffffffffffffffffffffffffffffffffffff1673ffffffffffffffffffffffffffffffffffffffff16815260200190815260200160002060006101000a81548160ff021916908315150217905550611d05806100d76000396000f3fe608060405234801561001057600080fd5b50600436106100b45760003560e01c80637de1d450116100715780637de1d4501461018f578063998c1179146101ab578063d3802c4e146101db578063e4ceb8a31461020b578063f080d0ad14610227578063f851a44014610257576100b4565b80631785f53c146100b95780631ac4db52146100d557806324d7806c146100f15780635875da13146101215780636ddea570146101575780637048027514610173575b600080fd5b6100d360048036038101906100ce919061125c565b610275565b005b6100ef60048036038101906100ea91906112bf565b61035c565b005b61010b6004803603810190610106919061125c565b6105d6565b6040516101189190611341565b60405180910390f35b61013b6004803603810190610136919061135c565b6105f6565b60405161014e97969594939291906113ba565b60405180910390f35b610171600480360381019061016c919061135c565b610682565b005b61018d6004803603810190610188919061125c565b61086e565b005b6101a960048036038101906101a49190611429565b610954565b005b6101c560048036038101906101c09190611490565b610d5e565b6040516101d291906114d0565b60405180910390f35b6101f560048036038101906101f091906114eb565b610d83565b6040516102029190611682565b60405180910390f35b610225600480360381019061022091906116a4565b610e98565b005b610241600480360381019061023c9190611490565b61117a565b60405161024e91906114d0565b60405180910390f35b61025f6111d5565b60405161026c91906116f7565b60405180910390f35b600160003373ffffffffffffffffffffffffffffffffffffffff1673ffffffffffffffffffffffffffffffffffffffff16815260200190815260200160002060009054906101000a900460ff16610301576040517f08c379a00000000000000000000000000000000000000000000000000000000081526004016102f890611795565b60405180910390fd5b6000600160008373ffffffffffffffffffffffffffffffffffffffff1673ffffffffffffffffffffffffffffffffffffffff16815260200190815260200160002060006101000a81548160ff02191690831515021790555050565b600160003373ffffffffffffffffffffffffffffffffffffffff1673ffffffffffffffffffffffffffffffffffffffff16815260200190815260200160002060009054906101000a900460ff166103e8576040517f08c379a00000000000000000000000000000000000000000000000000000000081526004016103df90611795565b60405180910390fd5b600060026000868152602001908152602001600020805490509050600260008681526020019081526020016000206040518060e001604052808673ffffffffffffffffffffffffffffffffffffffff1681526020018781526020018581526020018481526020014281526020016000151581526020016000815250908060018154018082558091505060019003906000526020600020906007020160009091909190915060008201518160000160006101000a81548173ffffffffffffffffffffffffffffffffffffffff021916908373ffffffffffffffffffffffffffffffffffffffff1602179055506020820151816001015560408201518160020155606082015181600301556080820151816004015560a08201518160050160006101000a81548160ff02191690831515021790555060c082015181600601555050806003600087815260200190815260200160002060008673ffffffffffffffffffffffffffffffffffffffff1673ffffffffffffffffffffffffffffffffffffffff168152602001908152602001600020819055508373ffffffffffffffffffffffffffffffffffffffff16857fdc051f35ffc41a85a6abf7e1d70cdadec14e5fd79e471afe5799cc609d1b1fef8585426040516105c7939291906117b5565b60405180910390a35050505050565b60016020528060005260406000206000915054906101000a900460ff1681565b6002602052816000526040600020818154811061061257600080fd5b9060005260206000209060070201600091509150508060000160009054906101000a900473ffffffffffffffffffffffffffffffffffffffff16908060010154908060020154908060030154908060040154908060050160009054906101000a900460ff16908060060154905087565b8160006003600083815260200190815260200160002060003373ffffffffffffffffffffffffffffffffffffffff1673ffffffffffffffffffffffffffffffffffffffff1681526020019081526020016000205490506000810361071b576040517f08c379a000000000000000000000000000000000000000000000000000000000815260040161071290611838565b60405180910390fd5b60006003600086815260200190815260200160002060003373ffffffffffffffffffffffffffffffffffffffff1673ffffffffffffffffffffffffffffffffffffffff168152602001908152602001600020549050600060026000878152602001908152602001600020828154811061079757610796611858565b5b9060005260206000209060070201905060008160020154116107ee576040517f08c379a00000000000000000000000000000000000000000000000000000000081526004016107e5906118d3565b60405180910390fd5b8060050160009054906101000a900460ff1615610840576040517f08c379a00000000000000000000000000000000000000000000000000000000081526004016108379061193f565b60405180910390fd5b60018160050160006101000a81548160ff021916908315150217905550848160060181905550505050505050565b600160003373ffffffffffffffffffffffffffffffffffffffff1673ffffffffffffffffffffffffffffffffffffffff16815260200190815260200160002060009054906101000a900460ff166108fa576040517f08c379a00000000000000000000000000000000000000000000000000000000081526004016108f190611795565b60405180910390fd5b60018060008373ffffffffffffffffffffffffffffffffffffffff1673ffffffffffffffffffffffffffffffffffffffff16815260200190815260200160002060006101000a81548160ff02191690831515021790555050565b600160003373ffffffffffffffffffffffffffffffffffffffff1673ffffffffffffffffffffffffffffffffffffffff16815260200190815260200160002060009054906101000a900460ff166109e0576040517f08c379a00000000000000000000000000000000000000000000000000000000081526004016109d790611795565b60405180910390fd5b838360006003600084815260200190815260200160002060008373ffffffffffffffffffffffffffffffffffffffff1673ffffffffffffffffffffffffffffffffffffffff16815260200190815260200160002054905060008103610a7a576040517f08c379a0000000000000000000000000000000000000000000000000000000008152600401610a71906119ab565b60405180910390fd5b868560006003600084815260200190815260200160002060008373ffffffffffffffffffffffffffffffffffffffff1673ffffffffffffffffffffffffffffffffffffffff16815260200190815260200160002054905060008103610b14576040517f08c379a0000000000000000000000000000000000000000000000000000000008152600401610b0b906119ab565b60405180910390fd5b6000600360008c815260200190815260200160002060008b73ffffffffffffffffffffffffffffffffffffffff1673ffffffffffffffffffffffffffffffffffffffff1681526020019081526020016000205490506000600260008d81526020019081526020016000208281548110610b9057610b8f611858565b5b906000526020600020906007020190508060050160009054906101000a900460ff16610bf1576040517f08c379a0000000000000000000000000000000000000000000000000000000008152600401610be890611a3d565b60405180910390fd5b8881600201541015610c38576040517f08c379a0000000000000000000000000000000000000000000000000000000008152600401610c2f90611aa9565b60405180910390fd5b88816002016000828254610c4c9190611af8565b925050819055506000816002015460648b610c679190611b2c565b610c719190611b9d565b9050610c7f8d8c8c8461035c565b8a73ffffffffffffffffffffffffffffffffffffffff168c73ffffffffffffffffffffffffffffffffffffffff168e7f1967cf2d6a8439f40073752bab9ce33752db163aaa2eea06cabcd05abe208ab78d42604051610cdf929190611bce565b60405180910390a48a73ffffffffffffffffffffffffffffffffffffffff168c73ffffffffffffffffffffffffffffffffffffffff168e7fc05d167edb619959bd685047cd3f9d47b0b61341ce6defa706ed0e8415c34f268d42604051610d47929190611bce565b60405180910390a450505050505050505050505050565b6003602052816000526040600020602052806000526040600020600091509150505481565b606060026000838152602001908152602001600020805480602002602001604051908101604052809291908181526020016000905b82821015610e8d57838290600052602060002090600702016040518060e00160405290816000820160009054906101000a900473ffffffffffffffffffffffffffffffffffffffff1673ffffffffffffffffffffffffffffffffffffffff1673ffffffffffffffffffffffffffffffffffffffff168152602001600182015481526020016002820154815260200160038201548152602001600482015481526020016005820160009054906101000a900460ff1615151515815260200160068201548152505081526020019060010190610db8565b505050509050919050565b600160003373ffffffffffffffffffffffffffffffffffffffff1673ffffffffffffffffffffffffffffffffffffffff16815260200190815260200160002060009054906101000a900460ff16610f24576040517f08c379a0000000000000000000000000000000000000000000000000000000008152600401610f1b90611795565b60405180910390fd5b60006003600085815260200190815260200160002060008473ffffffffffffffffffffffffffffffffffffffff1673ffffffffffffffffffffffffffffffffffffffff1681526020019081526020016000205490506000600260008681526020019081526020016000208281548110610fa057610f9f611858565b5b906000526020600020906007020190506000816002015411610ff7576040517f08c379a0000000000000000000000000000000000000000000000000000000008152600401610fee90611c43565b60405180910390fd5b8060050160009054906101000a900460ff16611048576040517f08c379a000000000000000000000000000000000000000000000000000000000815260040161103f90611caf565b60405180910390fd5b828160000160006101000a81548173ffffffffffffffffffffffffffffffffffffffff021916908373ffffffffffffffffffffffffffffffffffffffff16021790555060008160050160006101000a81548160ff02191690831515021790555060008160060181905550816003600087815260200190815260200160002060008573ffffffffffffffffffffffffffffffffffffffff1673ffffffffffffffffffffffffffffffffffffffff168152602001908152602001600020819055508273ffffffffffffffffffffffffffffffffffffffff168473ffffffffffffffffffffffffffffffffffffffff16867fc05d167edb619959bd685047cd3f9d47b0b61341ce6defa706ed0e8415c34f2684600201544260405161116b929190611bce565b60405180910390a45050505050565b60006003600084815260200190815260200160002060008373ffffffffffffffffffffffffffffffffffffffff1673ffffffffffffffffffffffffffffffffffffffff16815260200190815260200160002054905092915050565b60008054906101000a900473ffffffffffffffffffffffffffffffffffffffff1681565b600080fd5b600073ffffffffffffffffffffffffffffffffffffffff82169050919050565b6000611229826111fe565b9050919050565b6112398161121e565b811461124457600080fd5b50565b60008135905061125681611230565b92915050565b600060208284031215611272576112716111f9565b5b600061128084828501611247565b91505092915050565b6000819050919050565b61129c81611289565b81146112a757600080fd5b50565b6000813590506112b981611293565b92915050565b600080600080608085870312156112d9576112d86111f9565b5b60006112e7878288016112aa565b94505060206112f887828801611247565b9350506040611309878288016112aa565b925050606061131a878288016112aa565b91505092959194509250565b60008115159050919050565b61133b81611326565b82525050565b60006020820190506113566000830184611332565b92915050565b60008060408385031215611373576113726111f9565b5b6000611381858286016112aa565b9250506020611392858286016112aa565b9150509250929050565b6113a58161121e565b82525050565b6113b481611289565b82525050565b600060e0820190506113cf600083018a61139c565b6113dc60208301896113ab565b6113e960408301886113ab565b6113f660608301876113ab565b61140360808301866113ab565b61141060a0830185611332565b61141d60c08301846113ab565b98975050505050505050565b60008060008060808587031215611443576114426111f9565b5b6000611451878288016112aa565b945050602061146287828801611247565b935050604061147387828801611247565b9250506060611484878288016112aa565b91505092959194509250565b600080604083850312156114a7576114a66111f9565b5b60006114b5858286016112aa565b92505060206114c685828601611247565b9150509250929050565b60006020820190506114e560008301846113ab565b92915050565b600060208284031215611501576115006111f9565b5b600061150f848285016112aa565b91505092915050565b600081519050919050565b600082825260208201905092915050565b6000819050602082019050919050565b61154d8161121e565b82525050565b61155c81611289565b82525050565b61156b81611326565b82525050565b60e0820160008201516115876000850182611544565b50602082015161159a6020850182611553565b5060408201516115ad6040850182611553565b5060608201516115c06060850182611553565b5060808201516115d36080850182611553565b5060a08201516115e660a0850182611562565b5060c08201516115f960c0850182611553565b50505050565b600061160b8383611571565b60e08301905092915050565b6000602082019050919050565b600061162f82611518565b6116398185611523565b935061164483611534565b8060005b8381101561167557815161165c88826115ff565b975061166783611617565b925050600181019050611648565b5085935050505092915050565b6000602082019050818103600083015261169c8184611624565b905092915050565b6000806000606084860312156116bd576116bc6111f9565b5b60006116cb868287016112aa565b93505060206116dc86828701611247565b92505060406116ed86828701611247565b9150509250925092565b600060208201905061170c600083018461139c565b92915050565b600082825260208201905092915050565b7f4f6e6c792061646d696e2063616e20706572666f726d2074686973206163746960008201527f6f6e000000000000000000000000000000000000000000000000000000000000602082015250565b600061177f602283611712565b915061178a82611723565b604082019050919050565b600060208201905081810360008301526117ae81611772565b9050919050565b60006060820190506117ca60008301866113ab565b6117d760208301856113ab565b6117e460408301846113ab565b949350505050565b7f4e6f7420616e20696e766573746f7220696e20746869732070726f7065727479600082015250565b6000611822602083611712565b915061182d826117ec565b602082019050919050565b6000602082019050818103600083015261185181611815565b9050919050565b7f4e487b7100000000000000000000000000000000000000000000000000000000600052603260045260246000fd5b7f4e6f20696e766573746d656e7420666f756e6400000000000000000000000000600082015250565b60006118bd601383611712565b91506118c882611887565b602082019050919050565b600060208201905081810360008301526118ec816118b0565b9050919050565b7f416c7265616479206c6973746564000000000000000000000000000000000000600082015250565b6000611929600e83611712565b9150611934826118f3565b602082019050919050565b600060208201905081810360008301526119588161191c565b9050919050565b7f4e6f7420616e206f776e6572206f66207468697320696e766573746d656e7400600082015250565b6000611995601f83611712565b91506119a08261195f565b602082019050919050565b600060208201905081810360008301526119c481611988565b9050919050565b7f496e766573746d656e74206973206e6f74206c697374656420666f722073616c60008201527f6500000000000000000000000000000000000000000000000000000000000000602082015250565b6000611a27602183611712565b9150611a32826119cb565b604082019050919050565b60006020820190508181036000830152611a5681611a1a565b9050919050565b7f4e6f7420656e6f756768206f776e65727368697020746f207472616e73666572600082015250565b6000611a93602083611712565b9150611a9e82611a5d565b602082019050919050565b60006020820190508181036000830152611ac281611a86565b9050919050565b7f4e487b7100000000000000000000000000000000000000000000000000000000600052601160045260246000fd5b6000611b0382611289565b9150611b0e83611289565b9250828203905081811115611b2657611b25611ac9565b5b92915050565b6000611b3782611289565b9150611b4283611289565b9250828202611b5081611289565b91508282048414831517611b6757611b66611ac9565b5b5092915050565b7f4e487b7100000000000000000000000000000000000000000000000000000000600052601260045260246000fd5b6000611ba882611289565b9150611bb383611289565b925082611bc357611bc2611b6e565b5b828204905092915050565b6000604082019050611be360008301856113ab565b611bf060208301846113ab565b9392505050565b7f496e766573746d656e7420646f6573206e6f7420657869737400000000000000600082015250565b6000611c2d601983611712565b9150611c3882611bf7565b602082019050919050565b60006020820190508181036000830152611c5c81611c20565b9050919050565b7f496e766573746d656e74206e6f74206c697374656420666f722073616c650000600082015250565b6000611c99601e83611712565b9150611ca482611c63565b602082019050919050565b60006020820190508181036000830152611cc881611c8c565b905091905056fea2646970667358221220504b940abb4c6dc30e4beff08d538c736eaa456201487bd632ae49d1c896aca864736f6c634300081c0033",
  "linkReferences": {},
  "deployedLinkReferences": {}
}